:0B0A1400416268697368656B20500048
:1008F60078087C007D007BFF7A0A79147E007F0BE6
:100906001208D01209F9E4F514AF147E00C3EF946F
:100916001B7480948050EFEF940F74809480403B5A
:10092600751580AF151209D9E4F513D3E513940AAA
:10093600748094805051E51424F12513FFC3940A62
:1009460074809480500774082FF8E68001E4FF1243
:1009560009E97F64120998051380D0C3748F951432
:10096600F515FF1209D9E4F513D3E513940A74803B
:100976009480501374082513F8E6FF1209E97F6482
:0C098600120998051380E2051402090F05
:0F09F9007F381209D97F0C1209D97F010209D961
:1009D9008F161209C18516A0C2B0120992C2B2229D
:1009E9008F161209C18516A0D2B0120992C2B2227D
:06099200C2B1D2B27F01E8
:10099800EF75F004A4FFAEF0758902758C06D28C51
:1009A800E4FDFCC3ED9FEC9E500C308DFDD28D0D07
:0809B800BD00010C80EDC28CB2
:0109C0002214
:1009C10075A0FFC2B0D2B130A70BC2B27F0212092B
:0809D10098D2B280F2C2B122FB
:03000000020A08E9
:0C0A0800787FE4F6D8FD7581160208F630
:10080000E709F608DFFA8046E709F208DFFA803EDA
:1008100088828C83E709F0A3DFFA8032E309F608C7
:10082000DFFA8078E309F208DFFA807088828C832F
:10083000E309F0A3DFFA806489828A83E0A3F608E3
:10084000DFFA805889828A83E0A3F208DFFA804CBD
:1008500080D280FA80C680D4806980F28033801094
:1008600080A680EA809A80A880DA80E280CA8033FD
:1008700089828A83ECFAE493A3C8C582C8CCC58375
:10088000CCF0A3C8C582C8CCC583CCDFE9DEE78045
:100890000D89828A83E493A3F608DFF9ECFAA9F0C4
:1008A000EDFB2289828A83ECFAE0A3C8C582C8CC1A
:1008B000C583CCF0A3C8C582C8CCC583CCDFEADE33
:1008C000E880DB89828A83E493A3F208DFF980CC95
:1008D00088F0EF60010E4E60C388F0ED2402B4048E
:1008E0000050B9F582EB2402B4040050AF23234535
:0608F00082239008507302
:00000001FF
