:0B09C500416268697368656B20500098
:1008F60078087C007D007BFF7A0979C57E007F0B36
:100906001208D01209AAE4F514C3E51494197480E8
:10091600948050F2C3748F9514FF12098AE4F5137C
:10092600C3E513940A74809480500E74082513F856
:0D093600E6FF12099A051380E7051480CC36
:0F09AA007F3812098A7F0E12098A7F0102098A9B
:10098A008F151209728515A0C2B0120943C2B2228C
:10099A008F151209728515A0D2B0120943C2B2226C
:06094300C2B1D2B27F0137
:10094900EF75F004A4FFAEF0758902758C06D28CA0
:10095900E4FDFCC3ED9FEC9E500C308DFDD28D0D56
:08096900BD00010C80EDC28C01
:010971002263
:1009720075A0FFC2B0D2B130A70BC2B27F0212097A
:0809820049D2B280F2C2B12299
:030000000209B939
:0C09B900787FE4F6D8FD7581150208F681
:10080000E709F608DFFA8046E709F208DFFA803EDA
:1008100088828C83E709F0A3DFFA8032E309F608C7
:10082000DFFA8078E309F208DFFA807088828C832F
:10083000E309F0A3DFFA806489828A83E0A3F608E3
:10084000DFFA805889828A83E0A3F208DFFA804CBD
:1008500080D280FA80C680D4806980F28033801094
:1008600080A680EA809A80A880DA80E280CA8033FD
:1008700089828A83ECFAE493A3C8C582C8CCC58375
:10088000CCF0A3C8C582C8CCC583CCDFE9DEE78045
:100890000D89828A83E493A3F608DFF9ECFAA9F0C4
:1008A000EDFB2289828A83ECFAE0A3C8C582C8CC1A
:1008B000C583CCF0A3C8C582C8CCC583CCDFEADE33
:1008C000E880DB89828A83E493A3F208DFF980CC95
:1008D00088F0EF60010E4E60C388F0ED2402B4048E
:1008E0000050B9F582EB2402B4040050AF23234535
:0608F00082239008507302
:00000001FF
