:0B09B100416268697368656B205000AC
:1008F60078087C007D007BFF7A0979B17E007F0B4A
:100906001208D0120971E4F513C3E513940A748032
:100916009480500E74082513F8E6FF120995051306
:0409260080E780FEE8
:100971007F381209857F0E1209857F011209857F53
:040981008A02098558
:100985008F141209598514A0C2B012092AC2B222C5
:100995008F141209598514A0D2B012092AC2B222A5
:06092A00C2B1D2B27F0150
:10093000EF75F004A4FFAEF0758902758C06D28CB9
:10094000E4FDFCC3ED9FEC9E500C308DFDD28D0D6F
:08095000BD00010C80EDC28C1A
:01095800227C
:1009590075A0FFC2B0D2B130A70BC2B27F02120993
:0809690030D2B280F2C2B122CB
:030000000209A54D
:0C09A500787FE4F6D8FD7581140208F696
:10080000E709F608DFFA8046E709F208DFFA803EDA
:1008100088828C83E709F0A3DFFA8032E309F608C7
:10082000DFFA8078E309F208DFFA807088828C832F
:10083000E309F0A3DFFA806489828A83E0A3F608E3
:10084000DFFA805889828A83E0A3F208DFFA804CBD
:1008500080D280FA80C680D4806980F28033801094
:1008600080A680EA809A80A880DA80E280CA8033FD
:1008700089828A83ECFAE493A3C8C582C8CCC58375
:10088000CCF0A3C8C582C8CCC583CCDFE9DEE78045
:100890000D89828A83E493A3F608DFF9ECFAA9F0C4
:1008A000EDFB2289828A83ECFAE0A3C8C582C8CC1A
:1008B000C583CCF0A3C8C582C8CCC583CCDFEADE33
:1008C000E880DB89828A83E493A3F208DFF980CC95
:1008D00088F0EF60010E4E60C388F0ED2402B4048E
:1008E0000050B9F582EB2402B4040050AF23234535
:0608F00082239008507302
:00000001FF
